:020000040000FA
:040000005FEF39F085
:1072BE0000EE35F0080EEE6AE806FDE10001A5EFDE
:1072CE003AF0000E066E02BE71EF39F06FEF39F034
:1072DE0077EF39F0016C021ED8B0022A010E066E4D
:1072EE0004BE7EEF39F07CEF39F082EF39F0036C9B
:1072FE00041ED8B0042A03500410D8B489EF39F014
:10730E008BEF39F0AFEF39F0010E056E93EF39F0D8
:10731E00D89003360436052A04AE98EF39F09AEF6A
:10732E0039F08FEF39F00350015C04500258D8A0A9
:10733E00A3EF39F0A5EF39F0A9EF39F00350015E54
:10734E000450025AD89004320332052E9AEF39F0C7
:10735E000650D8B4B5EF39F0B7EF39F0BBEF39F0CE
:10736E00016C021ED8B0022A01C001F002C002F068
:10737E001200000E066E04BEC9EF39F0C7EF39F0E9
:10738E00CFEF39F0036C041ED8B0042A010E066E3E
:10739E0002BED6EF39F0D4EF39F0DCEF39F0016CE4
:1073AE00021ED8B0022A010E061A000E086E000E3A
:1073BE00076E03500410D8B4E7EF39F0E9EF39F057
:1073CE0011EF3AF0010E056EF1EF39F0D890033659
:1073DE000436052A04AEF6EF39F0F8EF39F0EDEF8A
:1073EE0039F0D890073608360350015C0450025825
:1073FE00D8A004EF3AF006EF3AF00BEF3AF0035054
:10740E00015E0450025A0780D89004320332052ED2
:10741E00F8EF39F00650D8B417EF3AF019EF3AF00A
:10742E001DEF3AF0076C081ED8B0082A07C001F00D
:10743E0008C002F01200033404340A6E0A50D8A4B5
:10744E002BEF3AF02DEF3AF037EF3AF0000E016ED7
:10745E00000E026E000E036E000E046EA4EF3AF0E4
:10746E0001C005F002C006F003C007F004C008F02A
:10747E00200E47EF3AF0D890083207320632053226
:10748E00E82E42EF3AF00550096E038EFF0E0116FC
:10749E00FF0E0216FF0E0316000E0416960E0A5E5F
:1074AE000ABE5EEF3AF05CEF3AF074EF3AF00A5033
:1074BE00800A970FD8B066EF3AF068EF3AF06AEFAD
:1074CE003AF02DEF3AF0D890043203320232013204
:1074DE000A3E6AEF3AF08CEF3AF01F0E0A647AEF2A
:1074EE003AF07CEF3AF084EF3AF02DEF3AF0D89084
:1074FE0001360236033604360A060A50D8A48AEF3D
:10750E003AF08CEF3AF07EEF3AF00950D8B492EFA1
:10751E003AF094EF3AF09CEF3AF0041E031E021E6E
:10752E00016C000E02220322042201C001F002C0EF
:10753E0002F003C003F004C004F01200000E956EBA
:10754E009268700ED312D350FC0B0209D36EC15049
:10755E00F00B0E09C16ECF0EC116C30EC216C0506F
:10756E00C70B1009C06EC050F80B0109C06EC08E5B
:10757E00C280C282C2B2C6EF3AF0C8EF3AF0C1EF93
:10758E003AF0C4CF39F03A6A3950336EC350396E7F
:10759E0033C03AF039C001F03AC002F0036A046A0F
:1075AE00000E44EC3BF001C035F002C036F003C0D3
:1075BE0037F004C038F0000E056E000E066EFA0E9F
:1075CE00076E430E086E35C001F036C002F037C0AC
:1075DE0003F038C004F0EBEC3DF001C01AF002C02D
:1075EE001BF003C01CF004C01DF0000E1E6EC00E7A
:1075FE001F6E7F0E206E440E216E1EEC3CF01AC0E4
:10760E0035F01BC036F01CC037F01DC038F035C049
:10761E0001F036C002F037C003F038C004F022EC9F
:10762E003AF001503B6E3BC001F0026A000E046E50
:10763E000A0E036E68EC39F00150100F8C6E820E3C
:10764E00336EDE0EE82EFED7332EFCD73BC001F094
:10765E00026A000E046E0A0E036EC0EC39F0015081
:10766E00200F8C6E820E336EDE0EE82EFED7332E7A
:10767E00FCD7C0EF3AF000EF00F0096E0950D8B415
:10768E004BEF3BF04DEF3BF06FEF3BF004BE54EF92
:10769E003BF052EF3BF06FEF3BF001C005F002C044
:1076AE0006F003C007F004C008F0051E061E071EF4
:1076BE00081E052A000E06220722082205C00BF01E
:1076CE0006C00CF007C00DF008C00EF077EF3BF0CF
:1076DE0001C00BF002C00CF003C00DF004C00EF0A0
:1076EE000150021003100410D8A480EF3BF082EF7B
:1076FE003BF08CEF3BF0000E016E000E026E000EA2
:10770E00036E000E046E1DEF3CF0960E0A6E96EFA1
:10771E003BF00A2AD8900E320D320C320B32000E8C
:10772E000B14056E000E0C14066E000E0D14076E73
:10773E00FE0E0E14086E0550061007100810D8A481
:10774E00ABEF3BF0ADEF3BF090EF3BF0BBEF3BF020
:10775E000A2A010E0B26000E0C220D220E22D890A4
:10776E000E320D320C320B32000E0B14056E000E63
:10777E000C14066E000E0D14076EFF0E0E14086E1E
:10778E000550061007100810D8A4D0EF3BF0D2EF2A
:10779E003BF0AFEF3BF0DAEF3BF00A06D8900B363A
:1077AE000C360D360E360DBEDFEF3BF0E1EF3BF043
:1077BE00E9EF3BF0020E0A60E7EF3BF0E9EF3BF03A
:1077CE00D4EF3BF00AB0EEEF3BF0F0EF3BF0F1EF11
:1077DE003BF00D9ED8900A320AC005F0066A076A81
:1077EE00086A05C008F0076A066A056A05500B129A
:1077FE0006500C1207500D1208500E120950D8B434
:10780E000BEF3CF00DEF3CF015EF3CF004BE14EF27
:10781E003CF012EF3CF015EF3CF00E8E0BC001F079
:10782E000CC002F00DC003F00EC004F012001D508B
:10783E00800B2A6E1D501D24316E1CAE29EF3CF0BC
:10784E002BEF3CF02CEF3CF031803150D8B432EFBE
:10785E003CF034EF3CF049EF3CF03128D8A43AEF3D
:10786E003CF03CEF3CF044EF3CF0000E1A6E000E84
:10787E001B6E000E1C6E000E1D6E1C8E000E1D6EFD
:10788E0051EF3CF0000E1A6E000E1B6E000E1C6EB9
:10789E00000E1D6E2150800B2A1A21502124326EAB
:1078AE0020AE5CEF3CF05EEF3CF05FEF3CF03280E0
:1078BE003250D8B465EF3CF067EF3CF07CEF3CF013
:1078CE003228D8A46DEF3CF06FEF3CF077EF3CF030
:1078DE00000E1E6E000E1F6E000E206E000E216E2C
:1078EE00208E000E216E84EF3CF0000E1E6E000EF8
:1078FE001F6E000E206E000E216E1E501F102010E7
:10790E002110D8A48DEF3CF08FEF3CF0A7EF3CF0A8
:10791E00000E1A6E000E1B6E000E1C6E000E1D6EFB
:10792E00800E1C127F0E1D122A501D121AC01AF044
:10793E001BC01BF01CC01CF01DC01DF0EAEF3DF07B
:10794E003150D8A4ADEF3CF0AFEF3CF0B9EF3CF0C6
:10795E00000E1A6E000E1B6E000E1C6E000E1D6EBB
:10796E00EAEF3DF0325031C022F0236A225E000E63
:10797E00235A7F0E22242B6E000E23202C6E1AC04B
:10798E0026F01BC027F01CC028F01DC029F0000EE9
:10799E001A6E000E1B6E000E1C6E000E1D6E000E7B
:1079AE002D6E000E2E6E000E2F6E000E306E000E1F
:1079BE00326E1AEF3DF03250D8B4E8EF3CF0EAEFF9
:1079CE003CF001EF3DF0D890263627362836293682
:1079DE00D8901A361B361C361D3630AEF9EF3CF0F9
:1079EE00FBEF3CF0FCEF3CF01A80D8902D362E3693
:1079FE002F3630361E50265C1F50275820502858E0
:107A0E0021502958D8A00EEF3DF010EF3DF019EFA0
:107A1E003DF0308C1E50265E1F50275A2050285A9B
:107A2E002150295A322A190E326420EF3DF022EFEE
:107A3E003DF0E2EF3CF02650271028102910D8B464
:107A4E002BEF3DF02DEF3DF045EF3DF02D8045EF56
:107A5E003DF0D8901A361B361C361D3630AE3AEF36
:107A6E003DF03CEF3DF03DEF3DF01A80D8902D36C5
:107A7E002E362F3630362B06D8A02C061CAE4AEFEB
:107A8E003DF04CEF3DF030EF3DF0000E326E30AE7B
:107A9E0053EF3DF055EF3DF079EF3DF0FF0E2D1415
:107AAE00226EFF0E2E14236EFF0E2F14246E7F0EE9
:107ABE003014256E2250231024102510D8B46AEFEE
:107ACE003DF06CEF3DF070EF3DF0010E326E79EF50
:107ADE003DF01AA075EF3DF077EF3DF079EF3DF0F8
:107AEE006CEF3DF03250D8B47FEF3DF081EF3DF0BA
:107AFE00A5EF3DF0010E1A26000E1B221C221D22A0
:107B0E001DA08CEF3DF08EEF3DF0A5EF3DF01AC0BD
:107B1E0022F01BC023F01CC024F01DC025F025341C
:107B2E00253224322332223222C01AF023C01BF017
:107B3E0024C01CF025C01DF02B4A2C2A2CBEB0EF01
:107B4E003DF02C5008E12B28D8A0B0EF3DF0B2EF5D
:107B5E003DF0BDEF3DF0000E2C6E2B68000E1A6E40
:107B6E00000E1B6E000E1C6E000E1D6E2CBECAEF9C
:107B7E003DF02C5006E12B04D8B0C8EF3DF0CAEF13
:107B8E003DF0D8EF3DF0000E2C6E000E2B6E000E69
:107B9E001A6E000E1B6E000E1C6E000E1D6E000E79
:107BAE002A6E2BC031F031A0DFEF3DF0E1EF3DF05A
:107BBE00E4EF3DF01C8EE5EF3DF01C9ED890313089
:107BCE001D6E9BEF3CF012000450800B0D6E0450A6
:107BDE000424136E03AEF6EF3DF0F8EF3DF0F9EF2F
:107BEE003DF013801350D8B4FFEF3DF001EF3EF09F
:107BFE0014EF3EF01328D8A407EF3EF009EF3EF045
:107C0E0011EF3EF0000E016E000E026E000E036EBE
:107C1E00000E046E038E1CEF3EF0000E016E000E81
:107C2E00026E000E036E000E046E0850800B0D1ACD
:107C3E0008500824126E07AE27EF3EF029EF3EF0F3
:107C4E002AEF3EF012801250D8B430EF3EF032EFF1
:107C5E003EF045EF3EF01228D8A438EF3EF03AEF52
:107C6E003EF042EF3EF0000E056E000E066E000E68
:107C7E00076E000E086E078E4DEF3EF0000E056E7D
:107C8E00000E066E000E076E000E086E1250D8B46F
:107C9E0053EF3EF055EF3EF05DEF3EF01350D8A49B
:107CAE005BEF3EF05DEF3EF067EF3EF0000E016ED3
:107CBE00000E026E000E036E000E046EFFEF3FF01C
:107CCE0007500102F3CF18F0F4CF19F018500E6ED2
:107CDE000F6A106A116A1950146E156A166A176ABD
:107CEE0006500202F3CF18F0F4CF19F018500E26FA
:107CFE00000E0F221022112219501426000E1522EA
:107D0E001622172205500302F3CF18F0F4CF19F004
:107D1E0018500E26000E0F22102211221950142672
:107D2E00000E15221622172210C011F00FC010F0EF
:107D3E000EC00FF00E6A05500202F3CF18F0F4CF0A
:107D4E0019F018500E2619500F22000E1022000E98
:107D5E00112206500102F3CF18F0F4CF19F018508B
:107D6E000E2619500F22000E1022000E112210C0E6
:107D7E0011F00FC010F00EC00FF00E6A0550010288
:107D8E00F3CF18F0F4CF19F018500E2619500F2219
:107D9E00000E1022000E112207500202F3CF18F02F
:107DAE00F4CF19F01850142619501522000E162271
:107DBE00000E172206500302F3CF18F0F4CF19F07D
:107DCE001850142619501522000E1622000E1722D6
:107DDE0007500302F3CF18F0F4CF19F01850096EC4
:107DEE0019500A6E0B6A0C6A0BC00CF00AC00BF02D
:107DFE0009C00AF0096A095014260A5015220B50C0
:107E0E0016220C5017220EC009F00FC00AF010C037
:107E1E000BF011C00CF0190E1AEF3FF0D8900C3287
:107E2E000B320A320932E82E15EF3FF009501426B4
:107E3E000A5015220B5016220C50172210C011F0AA
:107E4E000FC010F00EC00FF00E6A125013C009F0E2
:107E5E000A6A0926000E0A22820E0924186EFF0EE7
:107E6E000A20196E50EF3FF0D8901436153616369C
:107E7E00173611AE45EF3FF047EF3FF048EF3FF0BA
:107E8E001480D8900E360F36103611361806D8A03C
:107E9E00190616AE55EF3FF057EF3FF03BEF3FF0B0
:107EAE00000E126E11AE5EEF3FF060EF3FF084EF0A
:107EBE003FF0FF0E0E14096EFF0E0F140A6EFF0E2A
:107ECE0010140B6E7F0E11140C6E09500A100B104D
:107EDE000C10D8B475EF3FF077EF3FF07BEF3FF02B
:107EEE00010E126E84EF3FF014A080EF3FF082EF90
:107EFE003FF084EF3FF077EF3FF01250D8B48AEFA7
:107F0E003FF08CEF3FF0B0EF3FF0010E1426000E65
:107F1E0015221622172217A097EF3FF099EF3FF088
:107F2E00B0EF3FF014C009F015C00AF016C00BF008
:107F3E0017C00CF00C340C320B320A32093209C065
:107F4E0014F00AC015F00BC016F00CC017F0184A4A
:107F5E00192A19BEBBEF3FF0195008E11828D8A016
:107F6E00BBEF3FF0BDEF3FF0C7EF3FF0000E146EDA
:107F7E00000E156E800E166E7F0E176EF5EF3FF02B
:107F8E0019BED4EF3FF0195006E11804D8B0D2EF65
:107F9E003FF0D4EF3FF0E0EF3FF0000E146E000E16
:107FAE00156E000E166E000E176E000E0D6EF5EFAE
:107FBE003FF018C013F0FF0E1416FF0E15167F0EAD
:107FCE001616000E171613A0EFEF3FF0F1EF3FF06D
:107FDE00F2EF3FF0168ED8901330176E0D50171229
:107FEE0014C001F015C002F016C003F017C004F063
:027FFE0012006F
:020000040020DA
:08000000FFFFFFFFFFFFFFFF00
:020000040030CA
:0E0000000088181EFF0181FF0FC00FE00F40A7
:00000001FF
